{
  "_format": "hh-sol-artifact-1",
  "contractName": "RTE",
  "sourceName": "contracts/RTE.sol",
  "abi": [
    {
      "inputs": [],
      "stateMutability": "nonpayable",
      "type": "constructor"
    },
    {
      "anonymous": false,
      "inputs": [
        {
          "indexed": true,
          "internalType": "address",
          "name": "owner",
          "type": "address"
        },
        {
          "indexed": true,
          "internalType": "address",
          "name": "spender",
          "type": "address"
        },
        {
          "indexed": false,
          "internalType": "uint256",
          "name": "value",
          "type": "uint256"
        }
      ],
      "name": "Approval",
      "type": "event"
    },
    {
      "anonymous": false,
      "inputs": [
        {
          "indexed": true,
          "internalType": "address",
          "name": "previousOwner",
          "type": "address"
        },
        {
          "indexed": true,
          "internalType": "address",
          "name": "newOwner",
          "type": "address"
        }
      ],
      "name": "OwnershipTransferred",
      "type": "event"
    },
    {
      "anonymous": false,
      "inputs": [
        {
          "indexed": false,
          "internalType": "address",
          "name": "account",
          "type": "address"
        }
      ],
      "name": "Paused",
      "type": "event"
    },
    {
      "anonymous": false,
      "inputs": [
        {
          "indexed": true,
          "internalType": "address",
          "name": "from",
          "type": "address"
        },
        {
          "indexed": true,
          "internalType": "address",
          "name": "to",
          "type": "address"
        },
        {
          "indexed": false,
          "internalType": "uint256",
          "name": "value",
          "type": "uint256"
        }
      ],
      "name": "Transfer",
      "type": "event"
    },
    {
      "anonymous": false,
      "inputs": [
        {
          "indexed": false,
          "internalType": "address",
          "name": "account",
          "type": "address"
        }
      ],
      "name": "Unpaused",
      "type": "event"
    },
    {
      "inputs": [
        {
          "internalType": "address",
          "name": "owner",
          "type": "address"
        },
        {
          "internalType": "address",
          "name": "spender",
          "type": "address"
        }
      ],
      "name": "allowance",
      "outputs": [
        {
          "internalType": "uint256",
          "name": "",
          "type": "uint256"
        }
      ],
      "stateMutability": "view",
      "type": "function"
    },
    {
      "inputs": [
        {
          "internalType": "address",
          "name": "spender",
          "type": "address"
        },
        {
          "internalType": "uint256",
          "name": "amount",
          "type": "uint256"
        }
      ],
      "name": "approve",
      "outputs": [
        {
          "internalType": "bool",
          "name": "",
          "type": "bool"
        }
      ],
      "stateMutability": "nonpayable",
      "type": "function"
    },
    {
      "inputs": [
        {
          "internalType": "address",
          "name": "account",
          "type": "address"
        }
      ],
      "name": "balanceOf",
      "outputs": [
        {
          "internalType": "uint256",
          "name": "",
          "type": "uint256"
        }
      ],
      "stateMutability": "view",
      "type": "function"
    },
    {
      "inputs": [
        {
          "internalType": "uint256",
          "name": "amount",
          "type": "uint256"
        }
      ],
      "name": "burn",
      "outputs": [],
      "stateMutability": "nonpayable",
      "type": "function"
    },
    {
      "inputs": [
        {
          "internalType": "address",
          "name": "account",
          "type": "address"
        },
        {
          "internalType": "uint256",
          "name": "amount",
          "type": "uint256"
        }
      ],
      "name": "burnFrom",
      "outputs": [],
      "stateMutability": "nonpayable",
      "type": "function"
    },
    {
      "inputs": [],
      "name": "cap",
      "outputs": [
        {
          "internalType": "uint256",
          "name": "",
          "type": "uint256"
        }
      ],
      "stateMutability": "view",
      "type": "function"
    },
    {
      "inputs": [],
      "name": "decimals",
      "outputs": [
        {
          "internalType": "uint8",
          "name": "",
          "type": "uint8"
        }
      ],
      "stateMutability": "view",
      "type": "function"
    },
    {
      "inputs": [
        {
          "internalType": "address",
          "name": "spender",
          "type": "address"
        },
        {
          "internalType": "uint256",
          "name": "subtractedValue",
          "type": "uint256"
        }
      ],
      "name": "decreaseAllowance",
      "outputs": [
        {
          "internalType": "bool",
          "name": "",
          "type": "bool"
        }
      ],
      "stateMutability": "nonpayable",
      "type": "function"
    },
    {
      "inputs": [
        {
          "internalType": "address",
          "name": "spender",
          "type": "address"
        },
        {
          "internalType": "uint256",
          "name": "addedValue",
          "type": "uint256"
        }
      ],
      "name": "increaseAllowance",
      "outputs": [
        {
          "internalType": "bool",
          "name": "",
          "type": "bool"
        }
      ],
      "stateMutability": "nonpayable",
      "type": "function"
    },
    {
      "inputs": [
        {
          "internalType": "address",
          "name": "to",
          "type": "address"
        },
        {
          "internalType": "uint256",
          "name": "amount",
          "type": "uint256"
        }
      ],
      "name": "mint",
      "outputs": [],
      "stateMutability": "nonpayable",
      "type": "function"
    },
    {
      "inputs": [],
      "name": "name",
      "outputs": [
        {
          "internalType": "string",
          "name": "",
          "type": "string"
        }
      ],
      "stateMutability": "view",
      "type": "function"
    },
    {
      "inputs": [],
      "name": "owner",
      "outputs": [
        {
          "internalType": "address",
          "name": "",
          "type": "address"
        }
      ],
      "stateMutability": "view",
      "type": "function"
    },
    {
      "inputs": [],
      "name": "pause",
      "outputs": [],
      "stateMutability": "nonpayable",
      "type": "function"
    },
    {
      "inputs": [],
      "name": "paused",
      "outputs": [
        {
          "internalType": "bool",
          "name": "",
          "type": "bool"
        }
      ],
      "stateMutability": "view",
      "type": "function"
    },
    {
      "inputs": [],
      "name": "renounceOwnership",
      "outputs": [],
      "stateMutability": "nonpayable",
      "type": "function"
    },
    {
      "inputs": [],
      "name": "symbol",
      "outputs": [
        {
          "internalType": "string",
          "name": "",
          "type": "string"
        }
      ],
      "stateMutability": "view",
      "type": "function"
    },
    {
      "inputs": [],
      "name": "totalSupply",
      "outputs": [
        {
          "internalType": "uint256",
          "name": "",
          "type": "uint256"
        }
      ],
      "stateMutability": "view",
      "type": "function"
    },
    {
      "inputs": [
        {
          "internalType": "address",
          "name": "recipient",
          "type": "address"
        },
        {
          "internalType": "uint256",
          "name": "amount",
          "type": "uint256"
        }
      ],
      "name": "transfer",
      "outputs": [
        {
          "internalType": "bool",
          "name": "",
          "type": "bool"
        }
      ],
      "stateMutability": "nonpayable",
      "type": "function"
    },
    {
      "inputs": [
        {
          "internalType": "address",
          "name": "sender",
          "type": "address"
        },
        {
          "internalType": "address",
          "name": "recipient",
          "type": "address"
        },
        {
          "internalType": "uint256",
          "name": "amount",
          "type": "uint256"
        }
      ],
      "name": "transferFrom",
      "outputs": [
        {
          "internalType": "bool",
          "name": "",
          "type": "bool"
        }
      ],
      "stateMutability": "nonpayable",
      "type": "function"
    },
    {
      "inputs": [
        {
          "internalType": "address",
          "name": "newOwner",
          "type": "address"
        }
      ],
      "name": "transferOwnership",
      "outputs": [],
      "stateMutability": "nonpayable",
      "type": "function"
    },
    {
      "inputs": [],
      "name": "unpause",
      "outputs": [],
      "stateMutability": "nonpayable",
      "type": "function"
    }
  ],
  "bytecode": "0x60806040523480156200001157600080fd5b506040518060400160405280600381526020017f52544500000000000000000000000000000000000000000000000000000000008152506040518060400160405280600381526020017f5254450000000000000000000000000000000000000000000000000000000000815250816003908051906020019062000096929190620004c6565b508060049080519060200190620000af929190620004c6565b5050506000600560006101000a81548160ff021916908315150217905550620000ed620000e16200014060201b60201c565b6200014860201b60201c565b6000620000ff6200020e60201b60201c565b600a6200010d919062000799565b631dcd65006200011e9190620008d6565b9050806006819055506200013933826200021760201b60201c565b50620009ef565b600033905090565b6000600560019054906101000a900473ffffffffffffffffffffffffffffffffffffffff16905081600560016101000a81548173ffffffffffffffffffffffffffffffffffffffff021916908373ffffffffffffffffffffffffffffffffffffffff1602179055508173ffffffffffffffffffffffffffffffffffffffff168173ffffffffffffffffffffffffffffffffffffffff167f8be0079c531659141344cd1fd0a4f28419497f9722a3daafe3b4186f6b6457e060405160405180910390a35050565b60006012905090565b62000227620002a860201b60201c565b816200023d620002b260201b6200049c1760201c565b620002499190620006e1565b11156200028d576040517f08c379a000000000000000000000000000000000000000000000000000000000815260040162000284906200066f565b60405180910390fd5b620002a48282620002bc60201b62000cad1760201c565b5050565b6000600654905090565b6000600254905090565b600073ffffffffffffffffffffffffffffffffffffffff168273ffffffffffffffffffffffffffffffffffffffff1614156200032f576040517f08c379a0000000000000000000000000000000000000000000000000000000008152600401620003269062000691565b60405180910390fd5b62000343600083836200043560201b60201c565b8060026000828254620003579190620006e1565b92505081905550806000808473ffffffffffffffffffffffffffffffffffffffff1673ffffffffffffffffffffffffffffffffffffffff1681526020019081526020016000206000828254620003ae9190620006e1565b925050819055508173ffffffffffffffffffffffffffffffffffffffff16600073ffffffffffffffffffffffffffffffffffffffff167fddf252ad1be2c89b69c2b068fc378daa952ba7f163c4a11628f55a4df523b3ef83604051620004159190620006b3565b60405180910390a36200043160008383620004a560201b60201c565b5050565b62000445620004aa60201b60201c565b1562000488576040517f08c379a00000000000000000000000000000000000000000000000000000000081526004016200047f906200064d565b60405180910390fd5b620004a0838383620004c160201b62000e0d1760201c565b505050565b505050565b6000600560009054906101000a900460ff16905090565b505050565b828054620004d4906200094e565b90600052602060002090601f016020900481019282620004f8576000855562000544565b82601f106200051357805160ff191683800117855562000544565b8280016001018555821562000544579182015b828111156200054357825182559160200191906001019062000526565b5b50905062000553919062000557565b5090565b5b808211156200057257600081600090555060010162000558565b5090565b600062000585601083620006d0565b91507f5061757361626c653a20706175736564000000000000000000000000000000006000830152602082019050919050565b6000620005c7601383620006d0565b91507f45524332303a20636170206578636565646564000000000000000000000000006000830152602082019050919050565b600062000609601f83620006d0565b91507f45524332303a206d696e7420746f20746865207a65726f2061646472657373006000830152602082019050919050565b620006478162000937565b82525050565b60006020820190508181036000830152620006688162000576565b9050919050565b600060208201905081810360008301526200068a81620005b8565b9050919050565b60006020820190508181036000830152620006ac81620005fa565b9050919050565b6000602082019050620006ca60008301846200063c565b92915050565b600082825260208201905092915050565b6000620006ee8262000937565b9150620006fb8362000937565b9250827fffffffffffffffffffffffffffffffffffffffffffffffffffffffffffffffff0382111562000733576200073262000984565b5b828201905092915050565b6000808291508390505b6001851115620007905780860481111562000768576200076762000984565b5b6001851615620007785780820291505b80810290506200078885620009e2565b945062000748565b94509492505050565b6000620007a68262000937565b9150620007b38362000941565b9250620007e27fffffffffffffffffffffffffffffffffffffffffffffffffffffffffffffffff8484620007ea565b905092915050565b600082620007fc5760019050620008cf565b816200080c5760009050620008cf565b8160018114620008255760028114620008305762000866565b6001915050620008cf565b60ff84111562000845576200084462000984565b5b8360020a9150848211156200085f576200085e62000984565b5b50620008cf565b5060208310610133831016604e8410600b8410161715620008a05782820a9050838111156200089a576200089962000984565b5b620008cf565b620008af84848460016200073e565b92509050818404811115620008c957620008c862000984565b5b81810290505b9392505050565b6000620008e38262000937565b9150620008f08362000937565b9250817fffffffffffffffffffffffffffffffffffffffffffffffffffffffffffffffff04831182151516156200092c576200092b62000984565b5b828202905092915050565b6000819050919050565b600060ff82169050919050565b600060028204905060018216806200096757607f821691505b602082108114156200097e576200097d620009b3565b5b50919050565b7f4e487b7100000000000000000000000000000000000000000000000000000000600052601160045260246000fd5b7f4e487b7100000000000000000000000000000000000000000000000000000000600052602260045260246000fd5b60008160011c9050919050565b61232a80620009ff6000396000f3fe608060405234801561001057600080fd5b50600436106101375760003560e01c80635c975abb116100b85780638da5cb5b1161007c5780638da5cb5b1461030457806395d89b4114610322578063a457c2d714610340578063a9059cbb14610370578063dd62ed3e146103a0578063f2fde38b146103d057610137565b80635c975abb1461028657806370a08231146102a4578063715018a6146102d457806379cc6790146102de5780638456cb59146102fa57610137565b8063355274ea116100ff578063355274ea146101f657806339509351146102145780633f4ba83a1461024457806340c10f191461024e57806342966c681461026a57610137565b806306fdde031461013c578063095ea7b31461015a57806318160ddd1461018a57806323b872dd146101a8578063313ce567146101d8575b600080fd5b6101446103ec565b6040516101519190611e9f565b60405180910390f35b610174600480360381019061016f91906117ed565b61047e565b6040516101819190611e84565b60405180910390f35b61019261049c565b60405161019f91906120c1565b60405180910390f35b6101c260048036038101906101bd919061179e565b6104a6565b6040516101cf9190611e84565b60405180910390f35b6101e061059e565b6040516101ed91906120dc565b60405180910390f35b6101fe6105a7565b60405161020b91906120c1565b60405180910390f35b61022e600480360381019061022991906117ed565b6105b1565b60405161023b9190611e84565b60405180910390f35b61024c61065d565b005b610268600480360381019061026391906117ed565b6106e3565b005b610284600480360381019061027f9190611829565b61076d565b005b61028e610781565b60405161029b9190611e84565b60405180910390f35b6102be60048036038101906102b99190611739565b610798565b6040516102cb91906120c1565b60405180910390f35b6102dc6107e0565b005b6102f860048036038101906102f391906117ed565b610868565b005b6103026108e3565b005b61030c610969565b6040516103199190611e69565b60405180910390f35b61032a610993565b6040516103379190611e9f565b60405180910390f35b61035a600480360381019061035591906117ed565b610a25565b6040516103679190611e84565b60405180910390f35b61038a600480360381019061038591906117ed565b610b10565b6040516103979190611e84565b60405180910390f35b6103ba60048036038101906103b59190611762565b610b2e565b6040516103c791906120c1565b60405180910390f35b6103ea60048036038101906103e59190611739565b610bb5565b005b6060600380546103fb90612225565b80601f016020809104026020016040519081016040528092919081815260200182805461042790612225565b80156104745780601f1061044957610100808354040283529160200191610474565b820191906000526020600020905b81548152906001019060200180831161045757829003601f168201915b5050505050905090565b600061049261048b610e12565b8484610e1a565b6001905092915050565b6000600254905090565b60006104b3848484610fe5565b6000600160008673ffffffffffffffffffffffffffffffffffffffff1673ffffffffffffffffffffffffffffffffffffffff16815260200190815260200160002060006104fe610e12565b73ffffffffffffffffffffffffffffffffffffffff1673ffffffffffffffffffffffffffffffffffffffff1681526020019081526020016000205490508281101561057e576040517f08c379a000000000000000000000000000000000000000000000000000000000815260040161057590611fa1565b60405180910390fd5b6105928561058a610e12565b858403610e1a565b60019150509392505050565b60006012905090565b6000600654905090565b60006106536105be610e12565b8484600160006105cc610e12565b73ffffffffffffffffffffffffffffffffffffffff1673ffffffffffffffffffffffffffffffffffffffff16815260200190815260200160002060008873ffffffffffffffffffffffffffffffffffffffff1673ffffffffffffffffffffffffffffffffffffffff1681526020019081526020016000205461064e9190612113565b610e1a565b6001905092915050565b610665610e12565b73ffffffffffffffffffffffffffffffffffffffff16610683610969565b73ffffffffffffffffffffffffffffffffffffffff16146106d9576040517f08c379a00000000000000000000000000000000000000000000000000000000081526004016106d090611fc1565b60405180910390fd5b6106e1611266565b565b6106eb610e12565b73ffffffffffffffffffffffffffffffffffffffff16610709610969565b73ffffffffffffffffffffffffffffffffffffffff161461075f576040517f08c379a000000000000000000000000000000000000000000000000000000000815260040161075690611fc1565b60405180910390fd5b6107698282611308565b5050565b61077e610778610e12565b82611372565b50565b6000600560009054906101000a900460ff16905090565b60008060008373ffffffffffffffffffffffffffffffffffffffff1673ffffffffffffffffffffffffffffffffffffffff168152602001908152602001600020549050919050565b6107e8610e12565b73ffffffffffffffffffffffffffffffffffffffff16610806610969565b73ffffffffffffffffffffffffffffffffffffffff161461085c576040517f08c379a000000000000000000000000000000000000000000000000000000000815260040161085390611fc1565b60405180910390fd5b6108666000611549565b565b600061087b83610876610e12565b610b2e565b9050818110156108c0576040517f08c379a00000000000000000000000000000000000000000000000000000000081526004016108b790611fe1565b60405180910390fd5b6108d4836108cc610e12565b848403610e1a565b6108de8383611372565b505050565b6108eb610e12565b73ffffffffffffffffffffffffffffffffffffffff16610909610969565b73ffffffffffffffffffffffffffffffffffffffff161461095f576040517f08c379a000000000000000000000000000000000000000000000000000000000815260040161095690611fc1565b60405180910390fd5b61096761160f565b565b6000600560019054906101000a900473ffffffffffffffffffffffffffffffffffffffff16905090565b6060600480546109a290612225565b80601f01602080910402602001604051908101604052809291908181526020018280546109ce90612225565b8015610a1b5780601f106109f057610100808354040283529160200191610a1b565b820191906000526020600020905b8154815290600101906020018083116109fe57829003601f168201915b5050505050905090565b60008060016000610a34610e12565b73ffffffffffffffffffffffffffffffffffffffff1673ffffffffffffffffffffffffffffffffffffffff16815260200190815260200160002060008573ffffffffffffffffffffffffffffffffffffffff1673ffffffffffffffffffffffffffffffffffffffff16815260200190815260200160002054905082811015610af1576040517f08c379a0000000000000000000000000000000000000000000000000000000008152600401610ae890612081565b60405180910390fd5b610b05610afc610e12565b85858403610e1a565b600191505092915050565b6000610b24610b1d610e12565b8484610fe5565b6001905092915050565b6000600160008473ffffffffffffffffffffffffffffffffffffffff1673ffffffffffffffffffffffffffffffffffffffff16815260200190815260200160002060008373ffffffffffffffffffffffffffffffffffffffff1673ffffffffffffffffffffffffffffffffffffffff16815260200190815260200160002054905092915050565b610bbd610e12565b73ffffffffffffffffffffffffffffffffffffffff16610bdb610969565b73ffffffffffffffffffffffffffffffffffffffff1614610c31576040517f08c379a0000000000000000000000000000000000000000000000000000000008152600401610c2890611fc1565b60405180910390fd5b600073ffffffffffffffffffffffffffffffffffffffff168173ffffffffffffffffffffffffffffffffffffffff161415610ca1576040517f08c379a0000000000000000000000000000000000000000000000000000000008152600401610c9890611f21565b60405180910390fd5b610caa81611549565b50565b600073ffffffffffffffffffffffffffffffffffffffff168273ffffffffffffffffffffffffffffffffffffffff161415610d1d576040517f08c379a0000000000000000000000000000000000000000000000000000000008152600401610d14906120a1565b60405180910390fd5b610d29600083836116b2565b8060026000828254610d3b9190612113565b92505081905550806000808473ffffffffffffffffffffffffffffffffffffffff1673ffffffffffffffffffffffffffffffffffffffff1681526020019081526020016000206000828254610d909190612113565b925050819055508173ffffffffffffffffffffffffffffffffffffffff16600073ffffffffffffffffffffffffffffffffffffffff167fddf252ad1be2c89b69c2b068fc378daa952ba7f163c4a11628f55a4df523b3ef83604051610df591906120c1565b60405180910390a3610e096000838361170a565b5050565b505050565b600033905090565b600073ffffffffffffffffffffffffffffffffffffffff168373ffffffffffffffffffffffffffffffffffffffff161415610e8a576040517f08c379a0000000000000000000000000000000000000000000000000000000008152600401610e8190612061565b60405180910390fd5b600073ffffffffffffffffffffffffffffffffffffffff168273ffffffffffffffffffffffffffffffffffffffff161415610efa576040517f08c379a0000000000000000000000000000000000000000000000000000000008152600401610ef190611f41565b60405180910390fd5b80600160008573ffffffffffffffffffffffffffffffffffffffff1673ffffffffffffffffffffffffffffffffffffffff16815260200190815260200160002060008473ffffffffffffffffffffffffffffffffffffffff1673ffffffffffffffffffffffffffffffffffffffff168152602001908152602001600020819055508173ffffffffffffffffffffffffffffffffffffffff168373ffffffffffffffffffffffffffffffffffffffff167f8c5be1e5ebec7d5bd14f71427d1e84f3dd0314c0f7b2291e5b200ac8c7c3b92583604051610fd891906120c1565b60405180910390a3505050565b600073ffffffffffffffffffffffffffffffffffffffff168373ffffffffffffffffffffffffffffffffffffffff161415611055576040517f08c379a000000000000000000000000000000000000000000000000000000000815260040161104c90612041565b60405180910390fd5b600073ffffffffffffffffffffffffffffffffffffffff168273ffffffffffffffffffffffffffffffffffffffff1614156110c5576040517f08c379a00000000000000000000000000000000000000000000000000000000081526004016110bc90611ec1565b60405180910390fd5b6110d08383836116b2565b60008060008573ffffffffffffffffffffffffffffffffffffffff1673ffffffffffffffffffffffffffffffffffffffff16815260200190815260200160002054905081811015611156576040517f08c379a000000000000000000000000000000000000000000000000000000000815260040161114d90611f61565b60405180910390fd5b8181036000808673ffffffffffffffffffffffffffffffffffffffff1673ffffffffffffffffffffffffffffffffffffffff16815260200190815260200160002081905550816000808573ffffffffffffffffffffffffffffffffffffffff1673ffffffffffffffffffffffffffffffffffffffff16815260200190815260200160002060008282546111e99190612113565b925050819055508273ffffffffffffffffffffffffffffffffffffffff168473ffffffffffffffffffffffffffffffffffffffff167fddf252ad1be2c89b69c2b068fc378daa952ba7f163c4a11628f55a4df523b3ef8460405161124d91906120c1565b60405180910390a361126084848461170a565b50505050565b61126e610781565b6112ad576040517f08c379a00000000000000000000000000000000000000000000000000000000081526004016112a490611ee1565b60405180910390fd5b6000600560006101000a81548160ff0219169083151502179055507f5db9ee0a495bf2e6ff9c91a7834c1ba4fdd244a5e8aa4e537bd38aeae4b073aa6112f1610e12565b6040516112fe9190611e69565b60405180910390a1565b6113106105a7565b8161131961049c565b6113239190612113565b1115611364576040517f08c379a000000000000000000000000000000000000000000000000000000000815260040161135b90612021565b60405180910390fd5b61136e8282610cad565b5050565b600073ffffffffffffffffffffffffffffffffffffffff168273ffffffffffffffffffffffffffffffffffffffff1614156113e2576040517f08c379a00000000000000000000000000000000000000000000000000000000081526004016113d990612001565b60405180910390fd5b6113ee826000836116b2565b60008060008473ffffffffffffffffffffffffffffffffffffffff1673ffffffffffffffffffffffffffffffffffffffff16815260200190815260200160002054905081811015611474576040517f08c379a000000000000000000000000000000000000000000000000000000000815260040161146b90611f01565b60405180910390fd5b8181036000808573ffffffffffffffffffffffffffffffffffffffff1673ffffffffffffffffffffffffffffffffffffffff1681526020019081526020016000208190555081600260008282546114cb9190612169565b92505081905550600073ffffffffffffffffffffffffffffffffffffffff168373ffffffffffffffffffffffffffffffffffffffff167fddf252ad1be2c89b69c2b068fc378daa952ba7f163c4a11628f55a4df523b3ef8460405161153091906120c1565b60405180910390a36115448360008461170a565b505050565b6000600560019054906101000a900473ffffffffffffffffffffffffffffffffffffffff16905081600560016101000a81548173ffffffffffffffffffffffffffffffffffffffff021916908373ffffffffffffffffffffffffffffffffffffffff1602179055508173ffffffffffffffffffffffffffffffffffffffff168173ffffffffffffffffffffffffffffffffffffffff167f8be0079c531659141344cd1fd0a4f28419497f9722a3daafe3b4186f6b6457e060405160405180910390a35050565b611617610781565b15611657576040517f08c379a000000000000000000000000000000000000000000000000000000000815260040161164e90611f81565b60405180910390fd5b6001600560006101000a81548160ff0219169083151502179055507f62e78cea01bee320cd4e420270b5ea74000d11b0c9f74754ebdbfc544b05a25861169b610e12565b6040516116a89190611e69565b60405180910390a1565b6116ba610781565b156116fa576040517f08c379a00000000000000000000000000000000000000000000000000000000081526004016116f190611f81565b60405180910390fd5b611705838383610e0d565b505050565b505050565b60008135905061171e816122c6565b92915050565b600081359050611733816122dd565b92915050565b60006020828403121561174b57600080fd5b60006117598482850161170f565b91505092915050565b6000806040838503121561177557600080fd5b60006117838582860161170f565b92505060206117948582860161170f565b9150509250929050565b6000806000606084860312156117b357600080fd5b60006117c18682870161170f565b93505060206117d28682870161170f565b92505060406117e386828701611724565b9150509250925092565b6000806040838503121561180057600080fd5b600061180e8582860161170f565b925050602061181f85828601611724565b9150509250929050565b60006020828403121561183b57600080fd5b600061184984828501611724565b91505092915050565b61185b8161219d565b82525050565b61186a816121af565b82525050565b600061187b826120f7565b6118858185612102565b93506118958185602086016121f2565b61189e816122b5565b840191505092915050565b60006118b6602383612102565b91507f45524332303a207472616e7366657220746f20746865207a65726f206164647260008301527f65737300000000000000000000000000000000000000000000000000000000006020830152604082019050919050565b600061191c601483612102565b91507f5061757361626c653a206e6f74207061757365640000000000000000000000006000830152602082019050919050565b600061195c602283612102565b91507f45524332303a206275726e20616d6f756e7420657863656564732062616c616e60008301527f63650000000000000000000000000000000000000000000000000000000000006020830152604082019050919050565b60006119c2602683612102565b91507f4f776e61626c653a206e6577206f776e657220697320746865207a65726f206160008301527f64647265737300000000000000000000000000000000000000000000000000006020830152604082019050919050565b6000611a28602283612102565b91507f45524332303a20617070726f766520746f20746865207a65726f20616464726560008301527f73730000000000000000000000000000000000000000000000000000000000006020830152604082019050919050565b6000611a8e602683612102565b91507f45524332303a207472616e7366657220616d6f756e742065786365656473206260008301527f616c616e636500000000000000000000000000000000000000000000000000006020830152604082019050919050565b6000611af4601083612102565b91507f5061757361626c653a20706175736564000000000000000000000000000000006000830152602082019050919050565b6000611b34602883612102565b91507f45524332303a207472616e7366657220616d6f756e742065786365656473206160008301527f6c6c6f77616e63650000000000000000000000000000000000000000000000006020830152604082019050919050565b6000611b9a602083612102565b91507f4f776e61626c653a2063616c6c6572206973206e6f7420746865206f776e65726000830152602082019050919050565b6000611bda602483612102565b91507f45524332303a206275726e20616d6f756e74206578636565647320616c6c6f7760008301527f616e6365000000000000000000000000000000000000000000000000000000006020830152604082019050919050565b6000611c40602183612102565b91507f45524332303a206275726e2066726f6d20746865207a65726f2061646472657360008301527f73000000000000000000000000000000000000000000000000000000000000006020830152604082019050919050565b6000611ca6601383612102565b91507f45524332303a20636170206578636565646564000000000000000000000000006000830152602082019050919050565b6000611ce6602583612102565b91507f45524332303a207472616e736665722066726f6d20746865207a65726f20616460008301527f64726573730000000000000000000000000000000000000000000000000000006020830152604082019050919050565b6000611d4c602483612102565b91507f45524332303a20617070726f76652066726f6d20746865207a65726f2061646460008301527f72657373000000000000000000000000000000000000000000000000000000006020830152604082019050919050565b6000611db2602583612102565b91507f45524332303a2064656372656173656420616c6c6f77616e63652062656c6f7760008301527f207a65726f0000000000000000000000000000000000000000000000000000006020830152604082019050919050565b6000611e18601f83612102565b91507f45524332303a206d696e7420746f20746865207a65726f2061646472657373006000830152602082019050919050565b611e54816121db565b82525050565b611e63816121e5565b82525050565b6000602082019050611e7e6000830184611852565b92915050565b6000602082019050611e996000830184611861565b92915050565b60006020820190508181036000830152611eb98184611870565b905092915050565b60006020820190508181036000830152611eda816118a9565b9050919050565b60006020820190508181036000830152611efa8161190f565b9050919050565b60006020820190508181036000830152611f1a8161194f565b9050919050565b60006020820190508181036000830152611f3a816119b5565b9050919050565b60006020820190508181036000830152611f5a81611a1b565b9050919050565b60006020820190508181036000830152611f7a81611a81565b9050919050565b60006020820190508181036000830152611f9a81611ae7565b9050919050565b60006020820190508181036000830152611fba81611b27565b9050919050565b60006020820190508181036000830152611fda81611b8d565b9050919050565b60006020820190508181036000830152611ffa81611bcd565b9050919050565b6000602082019050818103600083015261201a81611c33565b9050919050565b6000602082019050818103600083015261203a81611c99565b9050919050565b6000602082019050818103600083015261205a81611cd9565b9050919050565b6000602082019050818103600083015261207a81611d3f565b9050919050565b6000602082019050818103600083015261209a81611da5565b9050919050565b600060208201905081810360008301526120ba81611e0b565b9050919050565b60006020820190506120d66000830184611e4b565b92915050565b60006020820190506120f16000830184611e5a565b92915050565b600081519050919050565b600082825260208201905092915050565b600061211e826121db565b9150612129836121db565b9250827fffffffffffffffffffffffffffffffffffffffffffffffffffffffffffffffff0382111561215e5761215d612257565b5b828201905092915050565b6000612174826121db565b915061217f836121db565b92508282101561219257612191612257565b5b828203905092915050565b60006121a8826121bb565b9050919050565b60008115159050919050565b600073ffffffffffffffffffffffffffffffffffffffff82169050919050565b6000819050919050565b600060ff82169050919050565b60005b838110156122105780820151818401526020810190506121f5565b8381111561221f576000848401525b50505050565b6000600282049050600182168061223d57607f821691505b6020821081141561225157612250612286565b5b50919050565b7f4e487b7100000000000000000000000000000000000000000000000000000000600052601160045260246000fd5b7f4e487b7100000000000000000000000000000000000000000000000000000000600052602260045260246000fd5b6000601f19601f8301169050919050565b6122cf8161219d565b81146122da57600080fd5b50565b6122e6816121db565b81146122f157600080fd5b5056fea2646970667358221220d6fab2fe46b75f9c5334f992bbcb9b7a0b329036ab4b5cc6c821efae9aa6bfcc64736f6c63430008000033",
  "linkReferences": {},
  "deployedLinkReferences": {}
}