{
  "_format": "hh-sol-artifact-1",
  "contractName": "PublicVesting",
  "sourceName": "contracts/PublicVesting.sol",
  "abi": [
    {
      "inputs": [
        {
          "internalType": "address",
          "name": "_rte",
          "type": "address"
        },
        {
          "internalType": "address",
          "name": "_busd",
          "type": "address"
        },
        {
          "internalType": "uint256",
          "name": "_startBuyTime",
          "type": "uint256"
        },
        {
          "internalType": "uint256",
          "name": "_endBuyTime",
          "type": "uint256"
        },
        {
          "internalType": "uint256",
          "name": "_claimTime",
          "type": "uint256"
        },
        {
          "internalType": "uint256",
          "name": "_cliffTime",
          "type": "uint256"
        },
        {
          "internalType": "uint256",
          "name": "_listingTime",
          "type": "uint256"
        }
      ],
      "stateMutability": "nonpayable",
      "type": "constructor"
    },
    {
      "anonymous": false,
      "inputs": [
        {
          "indexed": false,
          "internalType": "address",
          "name": "buyer",
          "type": "address"
        },
        {
          "indexed": false,
          "internalType": "uint256",
          "name": "amount",
          "type": "uint256"
        },
        {
          "indexed": false,
          "internalType": "uint256",
          "name": "timestamp",
          "type": "uint256"
        }
      ],
      "name": "Buy",
      "type": "event"
    },
    {
      "anonymous": false,
      "inputs": [
        {
          "indexed": false,
          "internalType": "address",
          "name": "caller",
          "type": "address"
        },
        {
          "indexed": false,
          "internalType": "uint256",
          "name": "amount",
          "type": "uint256"
        },
        {
          "indexed": false,
          "internalType": "uint256",
          "name": "timestamp",
          "type": "uint256"
        }
      ],
      "name": "Claim",
      "type": "event"
    },
    {
      "anonymous": false,
      "inputs": [
        {
          "indexed": true,
          "internalType": "address",
          "name": "previousOwner",
          "type": "address"
        },
        {
          "indexed": true,
          "internalType": "address",
          "name": "newOwner",
          "type": "address"
        }
      ],
      "name": "OwnershipTransferred",
      "type": "event"
    },
    {
      "inputs": [],
      "name": "VESTING_DURATION",
      "outputs": [
        {
          "internalType": "uint256",
          "name": "",
          "type": "uint256"
        }
      ],
      "stateMutability": "view",
      "type": "function"
    },
    {
      "inputs": [],
      "name": "VESTING_WINDOW",
      "outputs": [
        {
          "internalType": "uint256",
          "name": "",
          "type": "uint256"
        }
      ],
      "stateMutability": "view",
      "type": "function"
    },
    {
      "inputs": [],
      "name": "busd",
      "outputs": [
        {
          "internalType": "contract IERC20",
          "name": "",
          "type": "address"
        }
      ],
      "stateMutability": "view",
      "type": "function"
    },
    {
      "inputs": [
        {
          "internalType": "uint256",
          "name": "buyAmount",
          "type": "uint256"
        }
      ],
      "name": "buy",
      "outputs": [],
      "stateMutability": "nonpayable",
      "type": "function"
    },
    {
      "inputs": [],
      "name": "claim",
      "outputs": [],
      "stateMutability": "nonpayable",
      "type": "function"
    },
    {
      "inputs": [],
      "name": "claimTime",
      "outputs": [
        {
          "internalType": "uint256",
          "name": "",
          "type": "uint256"
        }
      ],
      "stateMutability": "view",
      "type": "function"
    },
    {
      "inputs": [],
      "name": "cliffTime",
      "outputs": [
        {
          "internalType": "uint256",
          "name": "",
          "type": "uint256"
        }
      ],
      "stateMutability": "view",
      "type": "function"
    },
    {
      "inputs": [],
      "name": "currentSale",
      "outputs": [
        {
          "internalType": "uint256",
          "name": "",
          "type": "uint256"
        }
      ],
      "stateMutability": "view",
      "type": "function"
    },
    {
      "inputs": [],
      "name": "dailyVestingPercent",
      "outputs": [
        {
          "internalType": "uint256",
          "name": "",
          "type": "uint256"
        }
      ],
      "stateMutability": "view",
      "type": "function"
    },
    {
      "inputs": [],
      "name": "endBuyTime",
      "outputs": [
        {
          "internalType": "uint256",
          "name": "",
          "type": "uint256"
        }
      ],
      "stateMutability": "view",
      "type": "function"
    },
    {
      "inputs": [],
      "name": "getVestingAmount",
      "outputs": [
        {
          "internalType": "uint256",
          "name": "",
          "type": "uint256"
        }
      ],
      "stateMutability": "view",
      "type": "function"
    },
    {
      "inputs": [],
      "name": "initVestingPercent",
      "outputs": [
        {
          "internalType": "uint256",
          "name": "",
          "type": "uint256"
        }
      ],
      "stateMutability": "view",
      "type": "function"
    },
    {
      "inputs": [],
      "name": "ipoPrice",
      "outputs": [
        {
          "internalType": "uint256",
          "name": "",
          "type": "uint256"
        }
      ],
      "stateMutability": "view",
      "type": "function"
    },
    {
      "inputs": [],
      "name": "listingTime",
      "outputs": [
        {
          "internalType": "uint256",
          "name": "",
          "type": "uint256"
        }
      ],
      "stateMutability": "view",
      "type": "function"
    },
    {
      "inputs": [],
      "name": "maxBuyAmount",
      "outputs": [
        {
          "internalType": "uint256",
          "name": "",
          "type": "uint256"
        }
      ],
      "stateMutability": "view",
      "type": "function"
    },
    {
      "inputs": [],
      "name": "minBuyAmount",
      "outputs": [
        {
          "internalType": "uint256",
          "name": "",
          "type": "uint256"
        }
      ],
      "stateMutability": "view",
      "type": "function"
    },
    {
      "inputs": [],
      "name": "owner",
      "outputs": [
        {
          "internalType": "address",
          "name": "",
          "type": "address"
        }
      ],
      "stateMutability": "view",
      "type": "function"
    },
    {
      "inputs": [],
      "name": "progress",
      "outputs": [
        {
          "internalType": "uint256",
          "name": "",
          "type": "uint256"
        }
      ],
      "stateMutability": "view",
      "type": "function"
    },
    {
      "inputs": [],
      "name": "refund",
      "outputs": [],
      "stateMutability": "nonpayable",
      "type": "function"
    },
    {
      "inputs": [],
      "name": "renounceOwnership",
      "outputs": [],
      "stateMutability": "nonpayable",
      "type": "function"
    },
    {
      "inputs": [],
      "name": "revokeBusd",
      "outputs": [],
      "stateMutability": "nonpayable",
      "type": "function"
    },
    {
      "inputs": [],
      "name": "revokeRte",
      "outputs": [],
      "stateMutability": "nonpayable",
      "type": "function"
    },
    {
      "inputs": [],
      "name": "rte",
      "outputs": [
        {
          "internalType": "contract IERC20",
          "name": "",
          "type": "address"
        }
      ],
      "stateMutability": "view",
      "type": "function"
    },
    {
      "inputs": [],
      "name": "startBuyTime",
      "outputs": [
        {
          "internalType": "uint256",
          "name": "",
          "type": "uint256"
        }
      ],
      "stateMutability": "view",
      "type": "function"
    },
    {
      "inputs": [],
      "name": "totalSale",
      "outputs": [
        {
          "internalType": "uint256",
          "name": "",
          "type": "uint256"
        }
      ],
      "stateMutability": "view",
      "type": "function"
    },
    {
      "inputs": [
        {
          "internalType": "address",
          "name": "newOwner",
          "type": "address"
        }
      ],
      "name": "transferOwnership",
      "outputs": [],
      "stateMutability": "nonpayable",
      "type": "function"
    },
    {
      "inputs": [
        {
          "internalType": "address",
          "name": "",
          "type": "address"
        }
      ],
      "name": "userByAddress",
      "outputs": [
        {
          "internalType": "uint256",
          "name": "buyAmount",
          "type": "uint256"
        },
        {
          "internalType": "uint256",
          "name": "initVestingAmount",
          "type": "uint256"
        },
        {
          "internalType": "uint256",
          "name": "initVestingDebt",
          "type": "uint256"
        },
        {
          "internalType": "uint256",
          "name": "dailyVestingAmount",
          "type": "uint256"
        },
        {
          "internalType": "uint256",
          "name": "dailyVestingDebt",
          "type": "uint256"
        }
      ],
      "stateMutability": "view",
      "type": "function"
    }
  ],
  "bytecode": "0x60c06040526019600855662aa1efb94e000060095562015180608090815250605a60a0908152506603f28cb71571c7600a5569152d02c7e14af6800000600b556000600c55681b1ae4d6e2ef500000600d55680ad78ebc5ac6200000600e553480156200006b57600080fd5b506040516200270b3803806200270b8339818101604052810190620000919190620002a7565b620000b1620000a5620001ad60201b60201c565b620001b560201b60201c565b86600160006101000a81548173ffffffffffffffffffffffffffffffffffffffff021916908373ffffffffffffffffffffffffffffffffffffffff16021790555085600260006101000a81548173ffffffffffffffffffffffffffffffffffffffff021916908373ffffffffffffffffffffffffffffffffffffffff16021790555084600381905550836004819055508260058190555081600681905550806007819055506006546005541115620001a0576040517f08c379a0000000000000000000000000000000000000000000000000000000008152600401620001979062000396565b60405180910390fd5b505050505050506200043b565b600033905090565b60008060009054906101000a900473ffffffffffffffffffffffffffffffffffffffff169050816000806101000a81548173ffffffffffffffffffffffffffffffffffffffff021916908373ffffffffffffffffffffffffffffffffffffffff1602179055508173ffffffffffffffffffffffffffffffffffffffff168173ffffffffffffffffffffffffffffffffffffffff167f8be0079c531659141344cd1fd0a4f28419497f9722a3daafe3b4186f6b6457e060405160405180910390a35050565b6000815190506200028a8162000407565b92915050565b600081519050620002a18162000421565b92915050565b600080600080600080600060e0888a031215620002c357600080fd5b6000620002d38a828b0162000279565b9750506020620002e68a828b0162000279565b9650506040620002f98a828b0162000290565b95505060606200030c8a828b0162000290565b94505060806200031f8a828b0162000290565b93505060a0620003328a828b0162000290565b92505060c0620003458a828b0162000290565b91505092959891949750929550565b600062000363600a83620003b8565b91507f696e6974206572726f72000000000000000000000000000000000000000000006000830152602082019050919050565b60006020820190508181036000830152620003b18162000354565b9050919050565b600082825260208201905092915050565b6000620003d682620003dd565b9050919050565b600073ffffffffffffffffffffffffffffffffffffffff82169050919050565b6000819050919050565b6200041281620003c9565b81146200041e57600080fd5b50565b6200042c81620003fd565b81146200043857600080fd5b50565b60805160a05161228e6200047d60003960008181610588015281816105b5015281816105d901526106890152600081816105420152610e11015261228e6000f3fe608060405234801561001057600080fd5b50600436106101a95760003560e01c8063715018a6116100f9578063aa68268211610097578063ea4ce23911610071578063ea4ce23914610410578063f01d226f1461042e578063f2fde38b1461044c578063f66bf22914610468576101a9565b8063aa682682146103b8578063d00d1012146103d6578063d96a094a146103f4576101a9565b806389a1420f116100d357806389a1420f1461032a5780638da5cb5b14610348578063989e5ea914610366578063a05d03fd1461039a576101a9565b8063715018a6146102f857806378cedf4b1461030257806388e765ff1461030c576101a9565b80633f57faa9116101665780635388d55b116101405780635388d55b146102a85780635597bc41146102c6578063577bd336146102d0578063590e1ae3146102ee576101a9565b80633f57faa9146102625780634cfc4d30146102805780634e71d92d1461029e576101a9565b806308e695ad146101ae5780630f1a6444146101cc578063247d867f146101ea57806327b3bf111461020857806333b14742146102265780633ca5b23414610244575b600080fd5b6101b6610486565b6040516101c39190611f50565b60405180910390f35b6101d461048c565b6040516101e19190611f50565b60405180910390f35b6101f2610492565b6040516101ff9190611f50565b60405180910390f35b610210610498565b60405161021d9190611f50565b60405180910390f35b61022e61049e565b60405161023b9190611f50565b60405180910390f35b61024c6104a4565b6040516102599190611d73565b60405180910390f35b61026a6104ca565b6040516102779190611f50565b60405180910390f35b610288610687565b6040516102959190611f50565b60405180910390f35b6102a66106ab565b005b6102b061081e565b6040516102bd9190611d73565b60405180910390f35b6102ce610844565b005b6102d86109bf565b6040516102e59190611f50565b60405180910390f35b6102f6610a0a565b005b610300610c06565b005b61030a610c8e565b005b610314610e09565b6040516103219190611f50565b60405180910390f35b610332610e0f565b60405161033f9190611f50565b60405180910390f35b610350610e33565b60405161035d9190611cc1565b60405180910390f35b610380600480360381019061037b91906117bd565b610e5c565b604051610391959493929190611f6b565b60405180910390f35b6103a2610e92565b6040516103af9190611f50565b60405180910390f35b6103c0610e98565b6040516103cd9190611f50565b60405180910390f35b6103de610e9e565b6040516103eb9190611f50565b60405180910390f35b61040e6004803603810190610409919061180f565b610ea4565b005b6104186111d5565b6040516104259190611f50565b60405180910390f35b6104366111db565b6040516104439190611f50565b60405180910390f35b610466600480360381019061046191906117bd565b6111e1565b005b6104706112d9565b60405161047d9190611f50565b60405180910390f35b60095481565b60065481565b60085481565b60055481565b60075481565b600260009054906101000a900473ffffffffffffffffffffffffffffffffffffffff1681565b600080600f60003373ffffffffffffffffffffffffffffffffffffffff1673ffffffffffffffffffffffffffffffffffffffff168152602001908152602001600020905060006005544210610530578160020154826001015461052d91906120d1565b90505b600060065442106106735760006105847f0000000000000000000000000000000000000000000000000000000000000000610576600354426112df90919063ffffffff16565b6112f590919063ffffffff16565b90507f000000000000000000000000000000000000000000000000000000000000000081116105b357806105d5565b7f00000000000000000000000000000000000000000000000000000000000000005b90507f000000000000000000000000000000000000000000000000000000000000000081141561061a578360040154846003015461061391906120d1565b9150610671565b83600401546106648261065667016345785d8a0000610648600a548a6003015461130b90919063ffffffff16565b6112f590919063ffffffff16565b61130b90919063ffffffff16565b61066e91906120d1565b91505b505b808261067f9190611ff0565b935050505090565b7f000000000000000000000000000000000000000000000000000000000000000081565b60006106b56104ca565b9050600081116106fa576040517f08c379a00000000000000000000000000000000000000000000000000000000081526004016106f190611e30565b60405180910390fd5b6107473382600160009054906101000a900473ffffffffffffffffffffffffffffffffffffffff1673ffffffffffffffffffffffffffffffffffffffff166113219092919063ffffffff16565b6000600f60003373ffffffffffffffffffffffffffffffffffffffff1673ffffffffffffffffffffffffffffffffffffffff16815260200190815260200160002090508181600401600082825461079e9190611ff0565b925050819055506000816002015414156107df5780600101548160040160008282546107ca91906120d1565b92505081905550806001015481600201819055505b7f34fcbac0073d7c3d388e51312faf357774904998eeb8fca628b9e6f65ee1cbf733834260405161081293929190611d3c565b60405180910390a15050565b600160009054906101000a900473ffffffffffffffffffffffffffffffffffffffff1681565b61084c6113a7565b73ffffffffffffffffffffffffffffffffffffffff1661086a610e33565b73ffffffffffffffffffffffffffffffffffffffff16146108c0576040517f08c379a00000000000000000000000000000000000000000000000000000000081526004016108b790611e90565b60405180910390fd5b6000600260009054906101000a900473ffffffffffffffffffffffffffffffffffffffff1673ffffffffffffffffffffffffffffffffffffffff166370a08231306040518263ffffffff1660e01b815260040161091d9190611cc1565b60206040518083038186803b15801561093557600080fd5b505afa158015610949573d6000803e3d6000fd5b505050506040513d601f19601f8201168201806040525081019061096d9190611838565b90506109bc3382600260009054906101000a900473ffffffffffffffffffffffffffffffffffffffff1673ffffffffffffffffffffffffffffffffffffffff166113219092919063ffffffff16565b50565b6000610a0560646109f7600b546109e9670de0b6b3a7640000600c5461130b90919063ffffffff16565b6112f590919063ffffffff16565b61130b90919063ffffffff16565b905090565b610708600754610a1a9190611ff0565b4210158015610a385750611c20600754610a349190611ff0565b4211155b610a77576040517f08c379a0000000000000000000000000000000000000000000000000000000008152600401610a6e90611ed0565b60405180910390fd5b6000600f60003373ffffffffffffffffffffffffffffffffffffffff1673ffffffffffffffffffffffffffffffffffffffff16815260200190815260200160002090506000816000015411610b01576040517f08c379a0000000000000000000000000000000000000000000000000000000008152600401610af890611db0565b60405180910390fd5b610b63333083600401548460020154610b1a9190611ff0565b600160009054906101000a900473ffffffffffffffffffffffffffffffffffffffff1673ffffffffffffffffffffffffffffffffffffffff166113af909392919063ffffffff16565b610bb4338260000154600260009054906101000a900473ffffffffffffffffffffffffffffffffffffffff1673ffffffffffffffffffffffffffffffffffffffff166113219092919063ffffffff16565b8060000154600c6000828254610bca91906120d1565b92505081905550600081600001819055506000816001018190555060008160020181905550600081600301819055506000816004018190555050565b610c0e6113a7565b73ffffffffffffffffffffffffffffffffffffffff16610c2c610e33565b73ffffffffffffffffffffffffffffffffffffffff1614610c82576040517f08c379a0000000000000000000000000000000000000000000000000000000008152600401610c7990611e90565b60405180910390fd5b610c8c6000611438565b565b610c966113a7565b73ffffffffffffffffffffffffffffffffffffffff16610cb4610e33565b73ffffffffffffffffffffffffffffffffffffffff1614610d0a576040517f08c379a0000000000000000000000000000000000000000000000000000000008152600401610d0190611e90565b60405180910390fd5b6000600160009054906101000a900473ffffffffffffffffffffffffffffffffffffffff1673ffffffffffffffffffffffffffffffffffffffff166370a08231306040518263ffffffff1660e01b8152600401610d679190611cc1565b60206040518083038186803b158015610d7f57600080fd5b505afa158015610d93573d6000803e3d6000fd5b505050506040513d601f19601f82011682018060405250810190610db79190611838565b9050610e063382600160009054906101000a900473ffffffffffffffffffffffffffffffffffffffff1673ffffffffffffffffffffffffffffffffffffffff166113219092919063ffffffff16565b50565b600d5481565b7f000000000000000000000000000000000000000000000000000000000000000081565b60008060009054906101000a900473ffffffffffffffffffffffffffffffffffffffff16905090565b600f6020528060005260406000206000915090508060000154908060010154908060020154908060030154908060040154905085565b600c5481565b60035481565b600a5481565b600354421015610ee9576040517f08c379a0000000000000000000000000000000000000000000000000000000008152600401610ee090611e10565b60405180910390fd5b600454421115610f2e576040517f08c379a0000000000000000000000000000000000000000000000000000000008152600401610f2590611f30565b60405180910390fd5b600e548110158015610f425750600d548111155b610f81576040517f08c379a0000000000000000000000000000000000000000000000000000000008152600401610f7890611eb0565b60405180910390fd5b600b5481600c54610f929190611ff0565b1115610fd3576040517f08c379a0000000000000000000000000000000000000000000000000000000008152600401610fca90611e70565b60405180910390fd5b6000600f60003373ffffffffffffffffffffffffffffffffffffffff1673ffffffffffffffffffffffffffffffffffffffff1681526020019081526020016000209050600d548282600001546110299190611ff0565b111561106a576040517f08c379a000000000000000000000000000000000000000000000000000000000815260040161106190611df0565b60405180910390fd5b6110b9333084600260009054906101000a900473ffffffffffffffffffffffffffffffffffffffff1673ffffffffffffffffffffffffffffffffffffffff166113af909392919063ffffffff16565b81600c60008282546110cb9190611ff0565b92505081905550818160000160008282546110e69190611ff0565b92505081905550600061111e600954611110670de0b6b3a76400008661130b90919063ffffffff16565b6112f590919063ffffffff16565b9050600061114a606461113c6008548561130b90919063ffffffff16565b6112f590919063ffffffff16565b9050808360010160008282546111609190611ff0565b9250508190555061117a81836112df90919063ffffffff16565b83600301600082825461118d9190611ff0565b925050819055507f1cbc5ab135991bd2b6a4b034a04aa2aa086dac1371cb9b16b8b5e2ed6b036bed3385426040516111c793929190611d3c565b60405180910390a150505050565b600b5481565b60045481565b6111e96113a7565b73ffffffffffffffffffffffffffffffffffffffff16611207610e33565b73ffffffffffffffffffffffffffffffffffffffff161461125d576040517f08c379a000000000000000000000000000000000000000000000000000000000815260040161125490611e90565b60405180910390fd5b600073ffffffffffffffffffffffffffffffffffffffff168173ffffffffffffffffffffffffffffffffffffffff1614156112cd576040517f08c379a00000000000000000000000000000000000000000000000000000000081526004016112c490611dd0565b60405180910390fd5b6112d681611438565b50565b600e5481565b600081836112ed91906120d1565b905092915050565b600081836113039190612046565b905092915050565b600081836113199190612077565b905092915050565b6113a28363a9059cbb60e01b8484604051602401611340929190611d13565b604051602081830303815290604052907bffffffffffffffffffffffffffffffffffffffffffffffffffffffff19166020820180517bffffffffffffffffffffffffffffffffffffffffffffffffffffffff83818316178352505050506114fc565b505050565b600033905090565b611432846323b872dd60e01b8585856040516024016113d093929190611cdc565b604051602081830303815290604052907bffffffffffffffffffffffffffffffffffffffffffffffffffffffff19166020820180517bffffffffffffffffffffffffffffffffffffffffffffffffffffffff83818316178352505050506114fc565b50505050565b60008060009054906101000a900473ffffffffffffffffffffffffffffffffffffffff169050816000806101000a81548173ffffffffffffffffffffffffffffffffffffffff021916908373ffffffffffffffffffffffffffffffffffffffff1602179055508173ffffffffffffffffffffffffffffffffffffffff168173ffffffffffffffffffffffffffffffffffffffff167f8be0079c531659141344cd1fd0a4f28419497f9722a3daafe3b4186f6b6457e060405160405180910390a35050565b600061155e826040518060400160405280602081526020017f5361666545524332303a206c6f772d6c6576656c2063616c6c206661696c65648152508573ffffffffffffffffffffffffffffffffffffffff166115c39092919063ffffffff16565b90506000815111156115be578080602001905181019061157e91906117e6565b6115bd576040517f08c379a00000000000000000000000000000000000000000000000000000000081526004016115b490611f10565b60405180910390fd5b5b505050565b60606115d284846000856115db565b90509392505050565b606082471015611620576040517f08c379a000000000000000000000000000000000000000000000000000000000815260040161161790611e50565b60405180910390fd5b611629856116ef565b611668576040517f08c379a000000000000000000000000000000000000000000000000000000000815260040161165f90611ef0565b60405180910390fd5b6000808673ffffffffffffffffffffffffffffffffffffffff1685876040516116919190611caa565b60006040518083038185875af1925050503d80600081146116ce576040519150601f19603f3d011682016040523d82523d6000602084013e6116d3565b606091505b50915091506116e3828286611702565b92505050949350505050565b600080823b905060008111915050919050565b6060831561171257829050611762565b6000835111156117255782518084602001fd5b816040517f08c379a00000000000000000000000000000000000000000000000000000000081526004016117599190611d8e565b60405180910390fd5b9392505050565b60008135905061177881612213565b92915050565b60008151905061178d8161222a565b92915050565b6000813590506117a281612241565b92915050565b6000815190506117b781612241565b92915050565b6000602082840312156117cf57600080fd5b60006117dd84828501611769565b91505092915050565b6000602082840312156117f857600080fd5b60006118068482850161177e565b91505092915050565b60006020828403121561182157600080fd5b600061182f84828501611793565b91505092915050565b60006020828403121561184a57600080fd5b6000611858848285016117a8565b91505092915050565b61186a81612105565b82525050565b600061187b82611fbe565b6118858185611fd4565b9350611895818560208601612171565b80840191505092915050565b6118aa8161214d565b82525050565b60006118bb82611fc9565b6118c58185611fdf565b93506118d5818560208601612171565b6118de81612202565b840191505092915050565b60006118f6601683611fdf565b91507f726566756e643a20696e76616c696420616d6f756e74000000000000000000006000830152602082019050919050565b6000611936602683611fdf565b91507f4f776e61626c653a206e6577206f776e657220697320746865207a65726f206160008301527f64647265737300000000000000000000000000000000000000000000000000006020830152604082019050919050565b600061199c601783611fdf565b91507f6275793a206d617820616d6f756e7420657863656564730000000000000000006000830152602082019050919050565b60006119dc600d83611fdf565b91507f6275793a206e6f74206f70656e000000000000000000000000000000000000006000830152602082019050919050565b6000611a1c600c83611fdf565b91507f636c61696d3a206572726f7200000000000000000000000000000000000000006000830152602082019050919050565b6000611a5c602683611fdf565b91507f416464726573733a20696e73756666696369656e742062616c616e636520666f60008301527f722063616c6c00000000000000000000000000000000000000000000000000006020830152604082019050919050565b6000611ac2601783611fdf565b91507f6275793a206578636565647320746f74616c2073616c650000000000000000006000830152602082019050919050565b6000611b02602083611fdf565b91507f4f776e61626c653a2063616c6c6572206973206e6f7420746865206f776e65726000830152602082019050919050565b6000611b42601383611fdf565b91507f6275793a20696e76616c696420616d6f756e74000000000000000000000000006000830152602082019050919050565b6000611b82601b83611fdf565b91507f726566756e643a20726566756e642074696d65206578706972656400000000006000830152602082019050919050565b6000611bc2601d83611fdf565b91507f416464726573733a2063616c6c20746f206e6f6e2d636f6e74726163740000006000830152602082019050919050565b6000611c02602a83611fdf565b91507f5361666545524332303a204552433230206f7065726174696f6e20646964206e60008301527f6f742073756363656564000000000000000000000000000000000000000000006020830152604082019050919050565b6000611c68601583611fdf565b91507f6275793a206275792074696d65206578706972656400000000000000000000006000830152602082019050919050565b611ca481612143565b82525050565b6000611cb68284611870565b915081905092915050565b6000602082019050611cd66000830184611861565b92915050565b6000606082019050611cf16000830186611861565b611cfe6020830185611861565b611d0b6040830184611c9b565b949350505050565b6000604082019050611d286000830185611861565b611d356020830184611c9b565b9392505050565b6000606082019050611d516000830186611861565b611d5e6020830185611c9b565b611d6b6040830184611c9b565b949350505050565b6000602082019050611d8860008301846118a1565b92915050565b60006020820190508181036000830152611da881846118b0565b905092915050565b60006020820190508181036000830152611dc9816118e9565b9050919050565b60006020820190508181036000830152611de981611929565b9050919050565b60006020820190508181036000830152611e098161198f565b9050919050565b60006020820190508181036000830152611e29816119cf565b9050919050565b60006020820190508181036000830152611e4981611a0f565b9050919050565b60006020820190508181036000830152611e6981611a4f565b9050919050565b60006020820190508181036000830152611e8981611ab5565b9050919050565b60006020820190508181036000830152611ea981611af5565b9050919050565b60006020820190508181036000830152611ec981611b35565b9050919050565b60006020820190508181036000830152611ee981611b75565b9050919050565b60006020820190508181036000830152611f0981611bb5565b9050919050565b60006020820190508181036000830152611f2981611bf5565b9050919050565b60006020820190508181036000830152611f4981611c5b565b9050919050565b6000602082019050611f656000830184611c9b565b92915050565b600060a082019050611f806000830188611c9b565b611f8d6020830187611c9b565b611f9a6040830186611c9b565b611fa76060830185611c9b565b611fb46080830184611c9b565b9695505050505050565b600081519050919050565b600081519050919050565b600081905092915050565b600082825260208201905092915050565b6000611ffb82612143565b915061200683612143565b9250827fffffffffffffffffffffffffffffffffffffffffffffffffffffffffffffffff0382111561203b5761203a6121a4565b5b828201905092915050565b600061205182612143565b915061205c83612143565b92508261206c5761206b6121d3565b5b828204905092915050565b600061208282612143565b915061208d83612143565b9250817fffffffffffffffffffffffffffffffffffffffffffffffffffffffffffffffff04831182151516156120c6576120c56121a4565b5b828202905092915050565b60006120dc82612143565b91506120e783612143565b9250828210156120fa576120f96121a4565b5b828203905092915050565b600061211082612123565b9050919050565b60008115159050919050565b600073ffffffffffffffffffffffffffffffffffffffff82169050919050565b6000819050919050565b60006121588261215f565b9050919050565b600061216a82612123565b9050919050565b60005b8381101561218f578082015181840152602081019050612174565b8381111561219e576000848401525b50505050565b7f4e487b7100000000000000000000000000000000000000000000000000000000600052601160045260246000fd5b7f4e487b7100000000000000000000000000000000000000000000000000000000600052601260045260246000fd5b6000601f19601f8301169050919050565b61221c81612105565b811461222757600080fd5b50565b61223381612117565b811461223e57600080fd5b50565b61224a81612143565b811461225557600080fd5b5056fea264697066735822122057ec3de70e1f0f72a237b0edc99064471a3acaf9b8710510dc29e6dcd537db0664736f6c63430008000033",
  "linkReferences": {},
  "deployedLinkReferences": {}
}